:020000040800F2
:1000000000500020C90800085109000851090008E3
:1000100051090008510900085109000800000000BA
:10002000000000000000000000000000510900086E
:10003000510900080000000051090008510900089A
:100040005109000851090008510900085109000828
:10005000000000005109000889010008510900084A
:100060005109000851090008510900085109000808
:1000700051090008510900085109000851090008F8
:1000800051090008510900085109000851090008E8
:1000900051090008510900085109000851090008D8
:1000A00051090008510900085109000851090008C8
:1000B000FD0700085109000851090008510900080E
:1000C00051090008510900085109000851090008A8
:1000D0005109000851090008510900085109000898
:1000E0005109000851090008510900085109000888
:1000F0005109000851090008510900085109000878
:100100005109000851090008510900085109000867
:100110005109000851090008510900085109000857
:100120005109000851090008510900085109000847
:100130005109000851090008510900085109000837
:100140005109000851090008510900085109000827
:100150005109000851090008510900085109000817
:100160005109000851090008510900085109000807
:1001700051090008510900085109000851090008F7
:10018000510900085109000880B400AF084B5B69B1
:10019000C3F30003DBB2002B05D0054B5B69044AB7
:1001A00043F00103536100BFBD4680BC704700BFF0
:1001B0000004014080B485B000AF0346FB800023FB
:1001C000FB730CE0FA88FB7B42FA03F303F00103B4
:1001D000002B01D0FB7B06E0FB7B0133FB73FB7B39
:1001E0000F2BEFD9FF2318461437BD4680BC70474C
:1001F00080B584B000AF03463960FB8013467B7145
:100200003B687B4A934202D10023FB730DE03B68BD
:10021000784A934202D10123FB7306E03B68764A99
:10022000934240F0E0800223FB73FB881846FFF7FF
:10023000C1FF0346BB73BB7B03F003039B00BB60A2
:10024000BB7B032B15D86D4B9B680F21BA6801FA55
:1002500002F2D2431146694A0B409360674B9B6898
:10026000F97BBA6801FA02F21146644A0B439360C3
:1002700046E0BB7B072B15D8604BDB680F21BA68C3
:1002800001FA02F2D24311465C4A0B40D3605B4B49
:10029000DB68F97BBA6801FA02F21146574A0B4350
:1002A000D3602DE0BB7B0B2B15D8544B1B690F2162
:1002B000BA6801FA02F2D2431146504A0B40136168
:1002C0004E4B1B69F97BBA6801FA02F211464B4AA0
:1002D0000B43136114E0494B5B690F21BA6801FAC3
:1002E00002F2D2431146454A0B405361434B5B69CE
:1002F000F97BBA6801FA02F21146404A0B43536196
:100300003F4B1B68BA7B012101FA02F211463C4ABD
:100310000B4313607B79002B15D1394B9B68BA7B5B
:10032000012101FA02F21146354A0B439360344B26
:10033000DB68BA7B012101FA02F2D2431146304A4E
:100340000B40D3602CE07B79012B15D12C4BDB6863
:10035000BA7B012101FA02F21146294A0B43D3600C
:10036000274B9B68BA7B012101FA02F2D243114666
:10037000234A0B40936013E0214B9B68BA7B012119
:1003800001FA02F211461E4A0B4393601C4BDB68D4
:10039000BA7B012101FA02F21146194A0B43D360DC
:1003A000BB7B042B0BD8174B1B68BA7B0632012191
:1003B00001FA02F21146134A0B43136014E0BB7BAF
:1003C000092B06D80F4B1B680E4A43F40003136039
:1003D0000AE0BB7B0F2B07D80B4B1B680A4A43F480
:1003E0008073136000E000BF1037BD4680BD00BFC2
:1003F00000080140000C01400010014000000140D5
:100400000004014000E100E004E100E080B400AF3E
:10041000044B1B68034A43F02003136000BFBD4632
:1004200080BC704704E100E080B400AF044B1B685F
:10043000034A43F48013136000BFBD4680BC70477D
:1004400000E100E080B487B000AFF8600B467A604E
:100450007B8100237B6100233B6100237B6188E07B
:100460007A897B6942FA03F303F00103002B7DD004
:100470007B69072B0BD8FB681A687B699B000F21EF
:1004800001FA03F3DB431A40FB681A600BE0FB68D8
:100490005A687B69083B9B000F2101FA03F3DB4399
:1004A0001A40FB685A607B68072B3ED801A252F8BD
:1004B00023F000BFF3040008D5040008DB040008A3
:1004C000E1040008E7040008ED040008F90400084E
:1004D0001105000803233B6127E007233B6124E06B
:1004E0000B233B6121E00F233B611EE000233B61B6
:1004F0001BE004233B6118E008233B61FB68DB68D9
:1005000001217A6901FA02F21A43FB68DA600CE011
:1005100008233B61FB68DB6801217A6901FA02F27A
:10052000D2431A40FB68DA6000BF7B68002B04D01E
:100530007B68072B01D07B68062B7B69072B0AD8C9
:10054000FB681A687B699B00396901FA03F31A4357
:10055000FB681A600AE0FB685A687B69083B9B00ED
:10056000396901FA03F31A43FB685A607B69013366
:100570007B617B690F2B7FF673AF00BF00BF1C3719
:10058000BD4680BC704780B483B000AF78600B4636
:100590007B8013467B707B78002B03D07A887B6846
:1005A0001A6102E07A887B685A6100BF0C37BD4649
:1005B00080BC704780B483B000AF78600B467B800E
:1005C0007B689A687B881340002B14BF01230023AB
:1005D000DBB218460C37BD4680BC704780B400AF14
:1005E000294A136843F48033136000BF264B1B680D
:1005F000C3F30043DBB2002BF8D0244A1368022176
:1006000061F302031360204A536843F4803353605C
:100610001D4A5368072161F3954353601A4A536892
:100620006FF396535360184A136843F08073136056
:1006300000BF154B1B68C3F34063DBB2002BF8D03F
:10064000114A53686FF3071353600F4A536804212C
:1006500061F30A2353600C4A53686FF3CD23536050
:10066000094A5368022161F30103536000BF064B3E
:100670005B68C3F38103DBB2022BF8D100BF00BF7C
:10068000BD4680BC704700BF001002400020024001
:1006900080B400AF044A936943F00403936100BF40
:1006A000BD4680BC704700BF0010024080B400AF60
:1006B000044A936943F00803936100BFBD4680BCC0
:1006C000704700BF0010024080B400AF044A936935
:1006D00043F01003936100BFBD4680BC704700BF6C
:1006E0000010024080B400AF044A936943F0010354
:1006F000936100BFBD4680BC704700BF0010024040
:1007000080B400AF044AD36943F00103D36100BF52
:10071000BD4680BC704700BF0010024080B400AFEF
:10072000044A936943F40073936100BFBD4680BCE3
:10073000704700BF0010024080B400AF044A9369C4
:1007400043F48043936100BFBD4680BC704700BF47
:100750000010024080B400AF044A936943F4805310
:10076000936100BFBD4680BC704700BF00100240CF
:1007700080B400AF044AD36943F40013D36100BFCF
:10078000BD4680BC704700BF0010024080B400AF7F
:10079000044AD36943F40003D36100BFBD4680BC63
:1007A000704700BF0010024080B400AF0F4B41F60D
:1007B0003F721A600E4B40F2E7321A600D4B1B6815
:1007C0000C4A43F0010313604FF080431B684FF065
:1007D000804243F001031360074B1B68064A43F055
:1007E0008053136000BFBD4680BC704728000040A6
:1007F0002C0000400C00004000E100E080B400AF9D
:10080000074B1B6803F00103002B05D0044B1B684A
:10081000034A23F00103136000BFBD4680BC70474C
:100820001000004080B483B000AF7860134B41F6F5
:100830003F721A60124A7B681360124B00221A60E2
:100840004FF080431B684FF0804243F00103136078
:1008500000BF0C4B1B687A689A42FAD84FF080436D
:100860001B684FF0804223F001031360054B002208
:100870001A6000BF0C37BD4680BC7047280000409E
:100880002C0000402400004080B500AFFFF738FF87
:10089000FFF7FEFE012201210A48FFF7D3FD0122E6
:1008A00001210848FFF76FFE4FF47A70FFF7BAFF97
:1008B000002201210348FFF766FE4FF47A70FFF72C
:1008C000B1FFECE70008014080B586B000AF1B4ADD
:1008D0001B4BD31A7B601A4B7B611A4B3B61002385
:1008E000FB600AE03A69531C3B617B69591C7961E2
:1008F00012781A70FB680133FB60FA687B689A42D1
:10090000F0D3114A114BD31A7B60104B1B687B61EB
:100910000023BB6007E07B695A1C7A6100221A70D1
:10092000BB680133BB60BA687B689A42F3D3FFF7B8
:10093000ABFF00BF1837BD4680BD00BF00000020E0
:1009400000000020580900080000002000000020DE
:0809500080B400AFFEE700BF18
:04000005080008C91E
:00000001FF
